{
  "_format": "hh-sol-artifact-1",
  "contractName": "BikeRental",
  "sourceName": "contracts/rentBike.sol",
  "abi": [
    {
      "inputs": [],
      "stateMutability": "nonpayable",
      "type": "constructor"
    },
    {
      "anonymous": false,
      "inputs": [
        {
          "indexed": false,
          "internalType": "uint256",
          "name": "bikeId",
          "type": "uint256"
        },
        {
          "indexed": false,
          "internalType": "address",
          "name": "renter",
          "type": "address"
        },
        {
          "indexed": false,
          "internalType": "uint256",
          "name": "startTime",
          "type": "uint256"
        }
      ],
      "name": "BikeRented",
      "type": "event"
    },
    {
      "anonymous": false,
      "inputs": [
        {
          "indexed": false,
          "internalType": "uint256",
          "name": "bikeId",
          "type": "uint256"
        },
        {
          "indexed": false,
          "internalType": "address",
          "name": "renter",
          "type": "address"
        },
        {
          "indexed": false,
          "internalType": "uint256",
          "name": "amountRefunded",
          "type": "uint256"
        }
      ],
      "name": "BikeReturned",
      "type": "event"
    },
    {
      "inputs": [
        {
          "internalType": "uint256",
          "name": "",
          "type": "uint256"
        }
      ],
      "name": "bikes",
      "outputs": [
        {
          "internalType": "bool",
          "name": "isAvailable",
          "type": "bool"
        },
        {
          "internalType": "uint256",
          "name": "pricePerHour",
          "type": "uint256"
        },
        {
          "internalType": "address",
          "name": "currentRenter",
          "type": "address"
        },
        {
          "internalType": "uint256",
          "name": "rentalStartTime",
          "type": "uint256"
        },
        {
          "internalType": "uint256",
          "name": "depositAmount",
          "type": "uint256"
        }
      ],
      "stateMutability": "view",
      "type": "function"
    },
    {
      "inputs": [],
      "name": "deposit",
      "outputs": [
        {
          "internalType": "uint256",
          "name": "",
          "type": "uint256"
        }
      ],
      "stateMutability": "view",
      "type": "function"
    },
    {
      "inputs": [],
      "name": "getOwner",
      "outputs": [
        {
          "internalType": "address",
          "name": "",
          "type": "address"
        }
      ],
      "stateMutability": "view",
      "type": "function"
    },
    {
      "inputs": [
        {
          "internalType": "uint256",
          "name": "pricePerHour",
          "type": "uint256"
        }
      ],
      "name": "registerBike",
      "outputs": [],
      "stateMutability": "nonpayable",
      "type": "function"
    },
    {
      "inputs": [
        {
          "internalType": "uint256",
          "name": "bikeId",
          "type": "uint256"
        },
        {
          "internalType": "bytes32",
          "name": "personalData",
          "type": "bytes32"
        }
      ],
      "name": "rentBike",
      "outputs": [],
      "stateMutability": "payable",
      "type": "function"
    },
    {
      "inputs": [
        {
          "internalType": "uint256",
          "name": "bikeId",
          "type": "uint256"
        }
      ],
      "name": "returnBike",
      "outputs": [],
      "stateMutability": "nonpayable",
      "type": "function"
    },
    {
      "inputs": [],
      "name": "totalBikes",
      "outputs": [
        {
          "internalType": "uint256",
          "name": "",
          "type": "uint256"
        }
      ],
      "stateMutability": "view",
      "type": "function"
    }
  ],
  "bytecode": "0x608060405234801561001057600080fd5b50336000806101000a81548173ffffffffffffffffffffffffffffffffffffffff021916908373ffffffffffffffffffffffffffffffffffffffff160217905550620f42406003819055506110658061006a6000396000f3fe6080604052600436106100705760003560e01c8063a56a91c51161004e578063a56a91c51461010c578063d0e30db014610135578063e02a338214610160578063e401b8721461017c57610070565b80635c526e19146100755780637168b4e2146100b6578063893d20e8146100e1575b600080fd5b34801561008157600080fd5b5061009c60048036038101906100979190610912565b6101a5565b6040516100ad9594939291906109aa565b60405180910390f35b3480156100c257600080fd5b506100cb610208565b6040516100d891906109fd565b60405180910390f35b3480156100ed57600080fd5b506100f661020e565b6040516101039190610a18565b60405180910390f35b34801561011857600080fd5b50610133600480360381019061012e9190610912565b6102c5565b005b34801561014157600080fd5b5061014a6105e1565b60405161015791906109fd565b60405180910390f35b61017a60048036038101906101759190610a69565b6105e7565b005b34801561018857600080fd5b506101a3600480360381019061019e9190610912565b61074c565b005b60016020528060005260406000206000915090508060000160009054906101000a900460ff16908060010154908060020160009054906101000a900473ffffffffffffffffffffffffffffffffffffffff16908060030154908060040154905085565b60025481565b60008060009054906101000a900473ffffffffffffffffffffffffffffffffffffffff1673ffffffffffffffffffffffffffffffffffffffff163373ffffffffffffffffffffffffffffffffffffffff161461029f576040517f08c379a000000000000000000000000000000000000000000000000000000000815260040161029690610b2c565b60405180910390fd5b60008054906101000a900473ffffffffffffffffffffffffffffffffffffffff16905090565b60006001600083815260200190815260200160002090508060000160009054906101000a900460ff161561032e576040517f08c379a000000000000000000000000000000000000000000000000000000000815260040161032590610b98565b60405180910390fd5b3373ffffffffffffffffffffffffffffffffffffffff168160020160009054906101000a900473ffffffffffffffffffffffffffffffffffffffff1673ffffffffffffffffffffffffffffffffffffffff16146103c0576040517f08c379a00000000000000000000000000000000000000000000000000000000081526004016103b790610c2a565b60405180910390fd5b60008160030154426103d29190610c79565b90506000610e10826103e49190610cdc565b90506000610e10836103f69190610d0d565b111561040c576001816104099190610d3e565b90505b600083600101548261041e9190610d72565b90508084600401541015610467576040517f08c379a000000000000000000000000000000000000000000000000000000000815260040161045e90610e00565b60405180910390fd5b60008185600401546104799190610c79565b905060018560000160006101000a81548160ff02191690831515021790555060008560020160006101000a81548173ffffffffffffffffffffffffffffffffffffffff021916908373ffffffffffffffffffffffffffffffffffffffff16021790555060008560030181905550600085600401819055503373ffffffffffffffffffffffffffffffffffffffff166108fc829081150290604051600060405180830381858888f19350505050158015610536573d6000803e3d6000fd5b5060008054906101000a900473ffffffffffffffffffffffffffffffffffffffff1673ffffffffffffffffffffffffffffffffffffffff166108fc839081150290604051600060405180830381858888f1935050505015801561059d573d6000803e3d6000fd5b507f03435d135e4da3514f4a625feaecc5207306b22006e0ebd4f0be5f2deb22bb4f8633836040516105d193929190610e20565b60405180910390a1505050505050565b60035481565b60006001600084815260200190815260200160002090508060000160009054906101000a900460ff1661064f576040517f08c379a000000000000000000000000000000000000000000000000000000000815260040161064690610ea3565b60405180910390fd5b8060010154341015610696576040517f08c379a000000000000000000000000000000000000000000000000000000000815260040161068d90610f35565b60405180910390fd5b60008160000160006101000a81548160ff021916908315150217905550338160020160006101000a81548173ffffffffffffffffffffffffffffffffffffffff021916908373ffffffffffffffffffffffffffffffffffffffff1602179055504281600301819055503481600401819055507f9dc20253d4546ad30b6531427a275ddd62d657517c2fdfcf4b18b5c03e8854bc8333836003015460405161073f93929190610e20565b60405180910390a1505050565b60008054906101000a900473ffffffffffffffffffffffffffffffffffffffff1673ffffffffffffffffffffffffffffffffffffffff163373ffffffffffffffffffffffffffffffffffffffff16146107da576040517f08c379a00000000000000000000000000000000000000000000000000000000081526004016107d190610fc7565b60405180910390fd5b6000600260008154809291906107ef90610fe7565b9190505590506040518060a00160405280600115158152602001838152602001600073ffffffffffffffffffffffffffffffffffffffff1681526020016000815260200160008152506001600083815260200190815260200160002060008201518160000160006101000a81548160ff0219169083151502179055506020820151816001015560408201518160020160006101000a81548173ffffffffffffffffffffffffffffffffffffffff021916908373ffffffffffffffffffffffffffffffffffffffff16021790555060608201518160030155608082015181600401559050505050565b600080fd5b6000819050919050565b6108ef816108dc565b81146108fa57600080fd5b50565b60008135905061090c816108e6565b92915050565b600060208284031215610928576109276108d7565b5b6000610936848285016108fd565b91505092915050565b60008115159050919050565b6109548161093f565b82525050565b610963816108dc565b82525050565b600073ffffffffffffffffffffffffffffffffffffffff82169050919050565b600061099482610969565b9050919050565b6109a481610989565b82525050565b600060a0820190506109bf600083018861094b565b6109cc602083018761095a565b6109d9604083018661099b565b6109e6606083018561095a565b6109f3608083018461095a565b9695505050505050565b6000602082019050610a12600083018461095a565b92915050565b6000602082019050610a2d600083018461099b565b92915050565b6000819050919050565b610a4681610a33565b8114610a5157600080fd5b50565b600081359050610a6381610a3d565b92915050565b60008060408385031215610a8057610a7f6108d7565b5b6000610a8e858286016108fd565b9250506020610a9f85828601610a54565b9150509250929050565b600082825260208201905092915050565b7f4f6e6c7920746865206f776e65722063616e207365652074686569722061646460008201527f726573732e000000000000000000000000000000000000000000000000000000602082015250565b6000610b16602583610aa9565b9150610b2182610aba565b604082019050919050565b60006020820190508181036000830152610b4581610b09565b9050919050565b7f42696b65206973206e6f742072656e7465642e00000000000000000000000000600082015250565b6000610b82601383610aa9565b9150610b8d82610b4c565b602082019050919050565b60006020820190508181036000830152610bb181610b75565b9050919050565b7f43616c6c6572206973206e6f74207468652063757272656e742072656e74657260008201527f2e00000000000000000000000000000000000000000000000000000000000000602082015250565b6000610c14602183610aa9565b9150610c1f82610bb8565b604082019050919050565b60006020820190508181036000830152610c4381610c07565b9050919050565b7f4e487b7100000000000000000000000000000000000000000000000000000000600052601160045260246000fd5b6000610c84826108dc565b9150610c8f836108dc565b9250828203905081811115610ca757610ca6610c4a565b5b92915050565b7f4e487b7100000000000000000000000000000000000000000000000000000000600052601260045260246000fd5b6000610ce7826108dc565b9150610cf2836108dc565b925082610d0257610d01610cad565b5b828204905092915050565b6000610d18826108dc565b9150610d23836108dc565b925082610d3357610d32610cad565b5b828206905092915050565b6000610d49826108dc565b9150610d54836108dc565b9250828201905080821115610d6c57610d6b610c4a565b5b92915050565b6000610d7d826108dc565b9150610d88836108dc565b9250828202610d96816108dc565b91508282048414831517610dad57610dac610c4a565b5b5092915050565b7f52656e74616c20636f73742065786365656473206465706f7369742e00000000600082015250565b6000610dea601c83610aa9565b9150610df582610db4565b602082019050919050565b60006020820190508181036000830152610e1981610ddd565b9050919050565b6000606082019050610e35600083018661095a565b610e42602083018561099b565b610e4f604083018461095a565b949350505050565b7f42696b652069732063757272656e746c792072656e7465642e00000000000000600082015250565b6000610e8d601983610aa9565b9150610e9882610e57565b602082019050919050565b60006020820190508181036000830152610ebc81610e80565b9050919050565b7f4465706f736974206d75737420636f766572206174206c65617374206f6e652060008201527f686f75722e000000000000000000000000000000000000000000000000000000602082015250565b6000610f1f602583610aa9565b9150610f2a82610ec3565b604082019050919050565b60006020820190508181036000830152610f4e81610f12565b9050919050565b7f4f6e6c7920746865206f776e65722063616e207265676973746572206120626960008201527f6b652e0000000000000000000000000000000000000000000000000000000000602082015250565b6000610fb1602383610aa9565b9150610fbc82610f55565b604082019050919050565b60006020820190508181036000830152610fe081610fa4565b9050919050565b6000610ff2826108dc565b91507fffffffffffffffffffffffffffffffffffffffffffffffffffffffffffffffff820361102457611023610c4a565b5b60018201905091905056fea2646970667358221220c0f9b75513bc0361b2f9dcd0adb62827136862166ddbc5bed4075ac5c386ea0864736f6c63430008180033",
  "linkReferences": {},
  "deployedLinkReferences": {}
}